:100000000C9434000C9446000C9446000C9446006A
:100010000C944E040C9446000C9446000C9446003C
:100020000C9446000C9446000C9446000C94460038
:100030000C9446000C9446000C9446000C94460028
:100040000C9446000C9446000C9426030C94460035
:100050000C9446000C9465020C9446000C944600E7
:100060000C9446000C94460011241FBECFEFD8E03C
:10007000DEBFCDBF21E0A0E0B1E001C01D92A23201
:10008000B207E1F70E944E020C9437070C9400006F
:100090008AB182608AB98AB18E7F8AB9E0ECF0E0D9
:1000A000808182608083E1ECF0E0808188698083D8
:1000B000E2ECF0E080818660808382E290E09093C1
:1000C000C5008093C40008959091C00095FFFCCFB7
:1000D0008093C60008950F931F93CF938C01C0E0C7
:1000E00003C00E946400CF5FF801EC0FF11D808116
:1000F0008111F7CFCF911F910F9108950F931F9307
:10010000CF93DF93AC01FB01483E83E0580708F42E
:100110005AC08A0116950795169507951695079565
:100120009801A5ECB0E20E942807EC01D295C29597
:10013000CF70CD27DF70CD278C2F805D808328EE98
:1001400033E0C29FC001C39F900DD29F900D112438
:10015000481B590B8A011695079516950795980126
:10016000ABE7B4E10E942807EC01D695C7958C2F28
:10017000805D818324E62C9FC0012D9F900D11246A
:10018000481B590B9A01ADECBCEC0E942807EC010E
:10019000D695C795D695C795D695C7958C2F805D72
:1001A0008283CE01880F991FCC0FDD1FCC0FDD1F7E
:1001B000CC0FDD1FC80FD91F4C1B5D0BDF01149640
:1001C000405D438364C044365105C8F18A011695E9
:1001D0000795169507959801ABE7B4E10E942807AB
:1001E000EC01D695C7958C2F805D808324E62C9FEB
:1001F000C0012D9F900D1124481B590B9A01ADECA5
:10020000BCEC0E942807EC01D695C795D695C795FA
:10021000D695C7958C2F805D8183CE01880F991F5D
:10022000CC0FDD1FCC0FDD1FCC0FDD1FC80FD91F7A
:100230004C1B5D0BDF011396405D428328C04A30A2
:10024000510508F19A01ADECBCEC0E942807EC01C5
:10025000D695C795D695C795D695C7958C2F805DB1
:100260008083CE01880F991FCC0FDD1FCC0FDD1FBF
:10027000CC0FDD1FC80FD91F4C1B5D0BDF01129681
:10028000405D418304C0DB011196405D40831C92B8
:10029000DF91CF911F910F910895F8948AB18460F6
:1002A0008AB98BB18B7F8BB98AB188608AB98BB1DF
:1002B000877F8BB987B18C7F87B988B1836088B914
:1002C000E8E6F0E0808182608083ECE6F0E0808107
:1002D0008360808360E074E080E00E94710468E0E5
:1002E00070E080E00E94AF0460E074E080E00E9473
:1002F000270580E00E940E051092C10078940895B1
:10030000ECE7F0E01082808187648083EAE7F0E028
:10031000108280818E6880838081806480830895CC
:10032000EAE7F0E08081886080838BB184608BB9DC
:100330008BB1877F8BB90895F999FECF72BD61BDEE
:1003400080BD8FB384608FBB8FB382608FBB0895F5
:10035000EAE7F0E080818860808380818064808328
:100360008BB18B7F8BB98BB1877F8BB98091020169
:10037000813009F04DC080910101863008F048C0FD
:100380008BB188608BB98BB184608BB960910301AC
:1003900070910401CB0101969093040180930301B5
:1003A00087B50E949C016091030170910401CB010B
:1003B00001969093040180930301809188009091AD
:1003C00089000E949C016091030170910401CB019E
:1003D0000196909304018093030180918A0090918B
:1003E0008B000E949C016091030170910401CB017C
:1003F000019690930401809303018091B3000E94C1
:100400009C01809101018F5F809301011092020194
:100410000895F999FECF92BD81BD8FB381608FBBE6
:1004200080B50895CF93DF93EAE7F0E08081877F7E
:1004300080838BB18B7F8BB98BB188608BB9C09176
:1004400002018FEF8C0F843030F5809101018C1701
:1004500010F1D0E02197CC0FDD1FCC0FDD1FCE01B6
:100460000E94090287BDCE0101960E94090290E018
:100470009093890080938800CE0102960E94090221
:1004800090E090938B0080938A00CE0103960E94A7
:1004900009028093B300DF91CF9108950E944D012E
:1004A0000E9480010E94480080910D01813039F046
:1004B00018F0823039F0F8CF0E94A801F5CF0E94E1
:1004C0001202F2CF0E949001EFCF1F920F920FB64F
:1004D0000F9211242F933F934F935F936F937F93CA
:1004E0008F939F93AF93BF93EF93FF9380917C0083
:1004F00087706091780070917900873019F580E0FD
:1005000090E00E942D0628E431EE4AEF5FE30E945E
:10051000BB0628EB3EE04AEF54E40E9492050E949D
:10052000FE0570930A0160930901CB010E94090541
:10053000ECE7F0E0108280818064808380818660B7
:1005400080836EC0863019F580E090E00E942D0611
:100550002AED3CEA4AE75CE30E94BB0625E83BEE55
:1005600049E751E40E9492050E94FE05862F6093A0
:100570000B0170930C010E948E05ECE7F0E01082F5
:1005800080818064808380818560808349C08530DC
:1005900019F580E090E00E942D062AED3CEA4AE73A
:1005A0005CE30E94BB0625E83BEE49E751E40E946C
:1005B00092050E94FE05862F609307017093080143
:1005C0000E94AD04ECE7F0E01082808180648083BB
:1005D00080818460808324C0843011F580E090E0C5
:1005E0000E942D0628E431EE4AEF5FE30E94BB062D
:1005F00028EB3EE04AEF54E40E9492050E94FE057B
:100600007093060160930501CB010E942205ECE77F
:10061000F0E01082808180648083808187608083A5
:10062000EAE7F0E0808180648083FF91EF91BF91E1
:10063000AF919F918F917F916F915F914F913F917A
:100640002F910F900FBE0F901F9018951F920F9231
:100650000FB60F9211241F932F933F934F935F93E5
:100660006F937F938F939F93AF93BF93EF93FF937A
:10067000CF93DF93CDB7DEB72E97DEBFCDBF80918E
:10068000C600813451F490910D019F5F90930D014C
:10069000933041F410920D0105C0873419F491E0B4
:1006A0009093020190910D01923009F0DDC08A30E3
:1006B00019F08D3009F0CCC060910001E62FF0E018
:1006C000E25FFE4F1082FE01319688E0DF011D924D
:1006D0008A95E9F720E080E090E040E032C0E22F28
:1006E000F0E0E25FFE4F308150ED530F5A3078F466
:1006F000FC01EE0FFF1F880F991F880F991F880FAD
:10070000991F8E0F9F1F830F911DC09719C03C32F8
:1007100011F0311115C08115B4E09B0710F08FEF77
:1007200093E0E42FF0E0EE0FFF1FA1E0B0E0AC0F8C
:10073000BD1FEA0FFB1F918380834F5F80E090E035
:100740002F5F621710F0443050F2443009F07DC042
:1007500069817A8180E090E00E942D0628E431EEE4
:100760004AEF5FE30E94BB0628EB3EE04AEF54E409
:100770000E9492050E94FE05709389006093880094
:100780006B817C8180E090E00E942D062AED3CEA9E
:100790004AE75CE30E94BB0625E83BEE49E751E4EB
:1007A0000E9492050E94FE0570938B0060938A0060
:1007B0006D817E8180E090E00E942D062AED3CEA6A
:1007C0004AE75CE30E94BB0625E83BEE49E751E4BB
:1007D0000E9492050E94FE0567BD6F81788580E0CA
:1007E00090E00E942D0628E431EE4AEF5FE30E947C
:1007F000BB0628EB3EE04AEF54E40E9492050E94BB
:10080000FE056093B30010E01BC0E12FF0E0EE0F97
:10081000FF1F81E090E08C0F9D1FE80FF91FBE01C4
:10082000675F7F4F808191810E947E00CE01099693
:100830000E946B00133018F48CE20E9464001F5F6A
:10084000143018F38AE00E946400109200010CC07A
:10085000E0910001E33140F491E09E0F909300019C
:10086000F0E0E25FFE4F80832E960FB6F894DEBF75
:100870000FBECDBFDF91CF91FF91EF91BF91AF91AF
:100880009F918F917F916F915F914F913F912F91A8
:100890001F910F900FBE0F901F9018951F920F92EF
:1008A0000FB60F9211248F9330990AC080910D01D9
:1008B0008F5F80930D01833071F410920D010BC096
:1008C000319909C0809102018F5F809302018530C8
:1008D00011F4109202018F910F900FBE0F901F9094
:1008E00018959AB190649AB994B59F7794BD813068
:1008F00021F484B5806C84BD03C084B5806884BD58
:1009000084B5836084BD85B58B7F85BD60347105FA
:10091000C1F038F46130710561F06830710569F03B
:100920000895611581E0780781F06115744089F0C0
:10093000089585B5816085BD089585B5826085BDC2
:10094000089585B5836085BD089585B5846085BDAE
:10095000089585B5856085BD089587BD089594B1D6
:10096000926094B9E0E8F0E090819F7390838130C9
:1009700021F48081806C808305C0E0E8F0E0808114
:1009800080688083E0E8F0E0808182608083E1E835
:10099000F0E080818861808388EE9DEF90938700EE
:1009A0008093860060347105E1F038F461307105A0
:1009B00061F06830710579F026C0611581E0780733
:1009C000B1F061157440C9F01EC0E1E8F0E080812B
:1009D000816080830895E1E8F0E080818260808317
:1009E0000895E1E8F0E08081836080830895E1E884
:1009F000F0E08081846080830895E1E8F0E0808108
:100A0000856080830895E1E8F0E0808182608083E2
:100A100008959093890080938800089594B194601C
:100A200094B9E0E8F0E090819F7C9083813021F4DC
:100A30008081806380830895E0E8F0E080818062B7
:100A40008083089590938B0080938A00089594B1D9
:100A5000986094B9E0EBF0E090819F7390838130CF
:100A600021F48081806C808305C0E0EBF0E0808120
:100A700080688083E0EBF0E0808183608083E1EB3D
:100A8000F0E080818B7F80836034710549F150F400
:100A900068307105C9F060327105E1F061307105AF
:100AA000B9F50CC0611581E0780731F1611584E07A
:100AB000780741F16038710559F518C0E1EBF0E0B5
:100AC0008081816080830895E1EBF0E08081826025
:100AD00080830895E1EBF0E0808183608083089556
:100AE000E1EBF0E08081846080830895E1EBF0E049
:100AF0008081856080830895E1EBF0E080818660ED
:100B000080830895E1EBF0E0808187608083089521
:100B1000E1EBF0E080818660808308958093B300EC
:100B200008955058BB27AA270E94A9050C94810656
:100B30000E94730638F00E947A0620F039F49F3F35
:100B400019F426F40C9470060EF4E095E7FB0C946F
:100B50006A06E92F0E94920658F3BA1762077307D4
:100B60008407950720F079F4A6F50C94B4060EF4EA
:100B7000E0950B2EBA2FA02D0B01B90190010C01AD
:100B8000CA01A0011124FF27591B99F0593F50F4C5
:100B9000503E68F11A16F040A22F232F342F44271D
:100BA000585FF3CF469537952795A795F040539515
:100BB000C9F77EF41F16BA0B620B730B840BBAF0E5
:100BC0009150A1F0FF0FBB1F661F771F881FC2F750
:100BD0000EC0BA0F621F731F841F48F48795779564
:100BE0006795B795F7959E3F08F0B0CF9395880F1E
:100BF00008F09927EE0F9795879508950E949A0619
:100C000088F09F5798F0B92F9927B751B0F0E1F0CD
:100C1000660F771F881F991F1AF0BA95C9F714C07D
:100C2000B13091F00E94B406B1E008950C94B4067E
:100C3000672F782F8827B85F39F0B93FCCF38695B6
:100C400077956795B395D9F73EF490958095709513
:100C500061957F4F8F4F9F4F0895E89409C097FB90
:100C60003EF490958095709561957F4F8F4F9F4F83
:100C70009923A9F0F92F96E9BB279395F6958795C7
:100C800077956795B795F111F8CFFAF4BB0F11F48A
:100C900060FF1BC06F5F7F4F8F4F9F4F16C0882331
:100CA00011F096E911C0772321F09EE8872F762F67
:100CB00005C0662371F096E8862F70E060E02AF0A8
:100CC0009A95660F771F881FDAF7880F9695879594
:100CD00097F9089597F99F6780E870E060E00895BC
:100CE0009FEF80EC089500240A9416161706180644
:100CF0000906089500240A94121613061406050620
:100D00000895092E0394000C11F4882352F0BB0FB0
:100D100040F4BF2B11F460FF04C06F5F7F4F8F4F13
:100D20009F4F089557FD9058440F551F59F05F3F4E
:100D300071F04795880F97FB991F61F09F3F79F0FD
:100D400087950895121613061406551FF2CF46957F
:100D5000F1DF08C0161617061806991FF1CF869501
:100D60007105610508940895E894BB2766277727E5
:100D7000CB0197F908950E94CE060C9481060E943B
:100D8000730638F00E947A0620F0952311F00C9437
:100D90006A060C94700611240C94B5060E94920603
:100DA00070F3959FC1F3950F50E0551F629FF001BE
:100DB000729FBB27F00DB11D639FAA27F00DB11DD7
:100DC000AA1F649F6627B00DA11D661F829F222760
:100DD000B00DA11D621F739FB00DA11D621F839FE7
:100DE000A00D611D221F749F3327A00D611D231FBD
:100DF000849F600D211D822F762F6A2F11249F570B
:100E000050409AF0F1F088234AF0EE0FFF1FBB1F0D
:100E1000661F771F881F91505040A9F79E3F5105CC
:100E200080F00C946A060C94B5065F3FE4F3983E9C
:100E3000D4F3869577956795B795F795E7959F5F76
:100E4000C1F7FE2B880F911D9695879597F9089508
:100E5000A29FB001B39FC001A39F700D811D1124FB
:100E6000911DB29F700D811D1124911D0895F8945C
:020E7000FFCFB2
:00000001FF
