:100000000C9434000C9446000C9446000C9446006A
:100010000C9446000C9446000C9446000C94460048
:100020000C9446000C9446000C9446000C94460038
:100030000C9446000C9446000C9446000C94460028
:100040000C9446000C9446000C9446000C94460018
:100050000C9446000C9489000C9446000C944600C5
:100060000C9446000C94460011241FBECFEFD8E03C
:10007000DEBFCDBF21E0A0E0B1E001C01D92A43001
:10008000B207E1F70E9470000C942F020C9400005C
:10009000F894E1E6F0E080E8808384E0808360E427
:1000A00070E080E00E94F80060E470E080E00E9470
:1000B0003E0160E470E080E00E949D017894089524
:1000C000ECE7F0E01082808187668083EAE7F0E069
:1000D000108280818E68808380818064808308950F
:1000E0000E9448000E9460008091010190910201ED
:1000F0000E949801809103010E94040280910001F6
:100100000E943C018FE99FE00197F1F700C00000D9
:10011000EBCF1F920F920FB60F9211242F935F9384
:100120006F937F938F939F93AF93BF93EF93FF93BF
:1001300090917C009770809179009730C1F42EE106
:10014000829FC00111246FEF70E00E940702685F78
:100150007F4F7093020160930101ECE7F0E01082A1
:100160008081806680838081866080832DC0963008
:10017000A9F42EE1829FC00111246FEF70E00E946C
:100180000702695F60930301ECE7F0E01082808171
:100190008066808380818560808316C09530A1F45D
:1001A0002EE1829FC00111246FEF70E00E940702D0
:1001B000695F60930001ECE7F0E010828081806667
:1001C0008083808187608083EAE7F0E080818064BB
:1001D0008083FF91EF91BF91AF919F918F917F911C
:1001E0006F915F912F910F900FBE0F901F901895F8
:1001F0009AB190649AB994B59F7794BD813021F4F7
:1002000084B5806C84BD03C084B5806884BD84B52A
:10021000836084BD85B58B7F85BD60347105C1F079
:1002200038F46130710561F06830710569F01BC008
:10023000611581E0780781F06115744089F013C081
:1002400085B5816085BD0FC085B5826085BD0BC059
:1002500085B5836085BD07C085B5846085BD03C055
:1002600085B5856085BD85B5846085BDEEE6F0E029
:10027000808181608083089587BD089594B19260E4
:1002800094B9E0E8F0E090819F739083813021F48D
:100290008081806C808305C0E0E8F0E08081806828
:1002A0008083E0E8F0E0808182608083E1E8F0E034
:1002B00080818861808388E391E0909387008093B8
:1002C000860060347105E1F038F46130710561F049
:1002D0006830710579F026C0611581E07807B1F0CA
:1002E00061157440C9F01EC0E1E8F0E080818160D2
:1002F00080830895E1E8F0E0808182608083089542
:10030000E1E8F0E08081836080830895E1E8F0E037
:100310008081846080830895E1E8F0E080818560D9
:1003200080830895E1E8F0E0808182608083089511
:100330009093890080938800089594B1986094B94F
:10034000E0EBF0E090819F739083813021F4808115
:10035000806C808305C0E0EBF0E080818068808362
:10036000E0EBF0E0808183608083E1EBF0E080816E
:100370008B7F80836034710549F150F468307105DA
:10038000C9F060327105E1F061307105B9F50CC05A
:10039000611581E0780731F1611584E0780741F15A
:1003A0006038710559F518C0E1EBF0E0808181609B
:1003B00080830895E1EBF0E080818260808308957E
:1003C000E1EBF0E08081836080830895E1EBF0E071
:1003D0008081846080830895E1EBF0E08081856016
:1003E00080830895E1EBF0E080818660808308954A
:1003F000E1EBF0E08081876080830895E1EBF0E03D
:1004000080818660808308958093B300089597FB70
:10041000072E16F4009407D077FD09D00E941B0226
:1004200007FC05D03EF4909581959F4F08957095F7
:1004300061957F4F0895AA1BBB1B51E107C0AA1FFE
:10044000BB1FA617B70710F0A61BB70B881F991F75
:100450005A95A9F780959095BC01CD010895F8941F
:02046000FFCFCC
:00000001FF
