S012000050726F796563746F2D322E737265635E
S11300000C9434000C9446000C9446000C94460066
S11300100C941F030C9446000C9446000C94460068
S11300200C9446000C9446000C9446000C94460034
S11300300C9446000C9446000C9446000C94460024
S11300400C9446000C9446000C9446000C94460014
S11300500C9446000C945E020C9446000C944600EA
S11300600C9446000C94460011241FBECFEFD8E038
S1130070DEBFCDBF21E0A0E0B1E001C01D92AF30F2
S1130080B207E1F70E9447020C94F9050C940000B2
S11300908AB182608AB98AB18E7F8AB9E0ECF0E0D5
S11300A0808182608083E1ECF0E0808188698083D4
S11300B0E2ECF0E08081866080838FEC90E09093A6
S11300C0C5008093C4000895F8948AB184608AB905
S11300D08BB18B7F8BB98AB188608AB98BB1877FEA
S11300E08BB987B18C7F87B988B1836088B9E8E61A
S11300F0F0E0808182608083ECE6F0E080818360C0
S1130100808360E074E080E00E94420368E070E075
S113011080E00E94800360E074E080E00E94F803C5
S113012080E00E94DF031092C10078940895ECE708
S1130130F0E01082808187648083EAE7F0E0108237
S113014080818E6880838081806480830895EAE75B
S1130150F0E08081877F80838BB184608BB98BB121
S1130160877F8BB9089521B532B521FDFCCF72BDCF
S113017061BD80BD8FB384608FBB8FB382608FBB42
S113018008950E9497008BB18B7F8BB98BB1877FC9
S11301908BB980910301813009F04AC0809102013A
S11301A0863008F045C08BB188608BB98BB1846010
S11301B08BB96091040170910501CB010196909374
S11301C005018093040180910A010E94B3006091AB
S11301D0040170910501CB01019690930501809370
S11301E00401809108010E94B300609104017091A0
S11301F00501CB0101969093050180930401809140
S113020006010E94B3006091040170910501CB01C5
S11302100196909305018093040180910C010E9442
S1130220B300809102018F5F809302011092030159
S1130230089521B532B521FDFCCF92BD81BD8FB3A8
S113024084608FBB80B50895EAE7F0E08081877F02
S113025080838BB18B7F8BB98BB188608BB9809194
S113026003018130F1F581E090E0909305018093E2
S1130270040180E090E00E94190187BD809104018F
S1130280909105019C012F5F3F4F3093050120930E
S113029004010E94190190E09093890080938800E2
S11302A080910401909105019C012F5F3F4F309391
S11302B00501209304010E94190190E090938B00A2
S11302C080938A0080910401909105019C012F5F25
S11302D03F4F30930501209304010E94190180933C
S11302E0B30080910301823009F042C010920501ED
S11302F01092040185E090E0909301018093000145
S113030084E090E00E94190187BD809100019091E2
S113031001019C012F5F3F4F3093010120930001A5
S11303200E94190190E09093890080938800809145
S11303300001909101019C012F5F3F4F3093010117
S1130340209300010E94190190E090938B00809308
S11303508A0080910001909101019C012F5F3F4F21
S113036030930101209300010E9419018093B3008E
S113037080910301833009F042C01092050110926C
S1130380040189E090E0909301018093000188E0EA
S113039090E00E94190187BD8091000190910101B4
S11303A09C012F5F3F4F30930101209300010E9475
S11303B0190190E090938900809388008091000156
S11303C0909101019C012F5F3F4F309301012093D5
S11303D000010E94190190E090938B0080938A00A1
S11303E080910001909101019C012F5F3F4F309358
S11303F00101209300010E9419018093B3008091B0
S11304000301843009F042C01092050110920401E6
S11304108DE090E090930101809300018CE090E0E6
S11304200E94190187BD80910001909101019C01F6
S11304302F5F3F4F30930101209300010E94190167
S113044090E09093890080938800809100019091BE
S113045001019C012F5F3F4F309301012093000164
S11304600E94190190E090938B0080938A00809100
S11304700001909101019C012F5F3F4F30930101D6
S1130480209300010E9419018093B30008950E94F3
S113049064000E9497000E94480080910E01813000
S11304A039F018F0823039F0F8CF0E94C100F5CF4E
S11304B00E942401F2CF0E94A700EFCF1F920F9257
S11304C00FB60F9211242F933F934F935F936F9323
S11304D07F938F939F93AF93BF93EF93FF938091F9
S11304E07C0087706091780070917900873019F5ED
S11304F080E090E00E94FE0428E431EE4AEF5FE3DE
S11305000E948C0528EB3EE04AEF54E40E94630409
S11305100E94CF0470930B0160930A01CB010E94E7
S1130520DA03ECE7F0E010828081806480838081CC
S1130530866080836EC0863019F580E090E00E946A
S1130540FE042AED3CEA4AE75CE30E948C0525E8B8
S11305503BEE49E751E40E9463040E94CF04862FD6
S113056060930C0170930D010E945F04ECE7F0E0CE
S1130570108280818064808380818560808349C00B
S1130580853019F580E090E00E94FE042AED3CEAF3
S11305904AE75CE30E948C0525E83BEE49E751E419
S11305A00E9463040E94CF04862F60930801709315
S11305B009010E947E03ECE7F0E0108280818064F0
S11305C0808380818460808324C0843011F580E03E
S11305D090E00E94FE0428E431EE4AEF5FE30E94BB
S11305E08C0528EB3EE04AEF54E40E9463040E9429
S11305F0CF047093070160930601CB010E94F303BB
S1130600ECE7F0E0108280818064808380818760E1
S11306108083EAE7F0E0808180648083FF91EF913A
S1130620BF91AF919F918F917F916F915F914F9106
S11306303F912F910F900FBE0F901F9018951F920E
S11306400F920FB60F9211248F9330990AC08091A4
S11306500E018F5F80930E01833071F410920E01AE
S11306600BC0319909C0809103018F5F809303010E
S1130670853011F4109203018F910F900FBE0F90EB
S11306801F9018959AB190649AB994B59F7794BDC8
S1130690813021F484B5806C84BD03C084B5806846
S11306A084BD84B5836084BD85B58B7F85BD60348E
S11306B07105C1F038F46130710561F0683071057D
S11306C069F00895611581E0780781F0611574403F
S11306D089F0089585B5816085BD089585B58260EA
S11306E085BD089585B5836085BD089585B584600D
S11306F085BD089585B5856085BD089587BD089538
S113070094B1926094B9E0E8F0E090819F73908393
S1130710813021F48081806C808305C0E0E8F0E0C2
S1130720808180688083E0E8F0E08081826080835B
S1130730E1E8F0E080818861808388EE9DEF90930A
S113074087008093860060347105E1F038F46130ED
S1130750710561F06830710579F026C0611581E09A
S11307607807B1F061157440C9F01EC0E1E8F0E00B
S11307708081816080830895E1E8F0E08081826077
S113078080830895E1E8F0E08081836080830895A8
S1130790E1E8F0E08081846080830895E1E8F0E09E
S11307A08081856080830895E1E8F0E08081826043
S11307B0808308959093890080938800089594B16C
S11307C0946094B9E0E8F0E090819F7C908381305C
S11307D021F48081806380830895E0E8F0E08081E3
S11307E080628083089590938B0080938A0008959B
S11307F094B1986094B9E0EBF0E090819F7390839A
S1130800813021F48081806C808305C0E0EBF0E0CE
S1130810808180688083E0EBF0E080818360808366
S1130820E1EBF0E080818B7F80836034710549F1D6
S113083050F468307105C9F060327105E1F061303F
S11308407105B9F50CC0611581E0780731F16115C6
S113085084E0780741F16038710559F518C0E1EB7F
S1130860F0E08081816080830895E1EBF0E0808195
S1130870826080830895E1EBF0E08081836080836F
S11308800895E1EBF0E08081846080830895E1EBDA
S1130890F0E08081856080830895E1EBF0E0808161
S11308A0866080830895E1EBF0E080818760808337
S11308B00895E1EBF0E08081866080830895809361
S11308C0B30008955058BB27AA270E947A040C94B9
S11308D052050E94440538F00E944B0520F039F47B
S11308E09F3F19F426F40C9441050EF4E095E7FBC0
S11308F00C943B05E92F0E94630558F3BA1762076D
S113090073078407950720F079F4A6F50C94850500
S11309100EF4E0950B2EBA2FA02D0B01B901900116
S11309200C01CA01A0011124FF27591B99F0593F5A
S113093050F4503E68F11A16F040A22F232F342FA2
S11309404427585FF3CF469537952795A795F040F0
S11309505395C9F77EF41F16BA0B620B730B840B05
S1130960BAF09150A1F0FF0FBB1F661F771F881FBD
S1130970C2F70EC0BA0F621F731F841F48F4879515
S113098077956795B795F7959E3F08F0B0CF939507
S1130990880F08F09927EE0F9795879508950E9480
S11309A06B0588F09F5798F0B92F9927B751B0F08D
S11309B0E1F0660F771F881F991F1AF0BA95C9F7DF
S11309C014C0B13091F00E948505B1E008950C94F3
S11309D08505672F782F8827B85F39F0B93FCCF3A6
S11309E0869577956795B395D9F73EF4909580955C
S11309F0709561957F4F8F4F9F4F0895E89409C07C
S1130A0097FB3EF490958095709561957F4F8F4F3D
S1130A109F4F9923A9F0F92F96E9BB279395F69553
S1130A20879577956795B795F111F8CFFAF4BB0FD1
S1130A3011F460FF1BC06F5F7F4F8F4F9F4F16C035
S1130A40882311F096E911C0772321F09EE8872FBF
S1130A50762F05C0662371F096E8862F70E060E07B
S1130A602AF09A95660F771F881FDAF7880F9695F4
S1130A70879597F9089597F99F6780E870E060E09B
S1130A8008959FEF80EC089500240A941616170623
S1130A9018060906089500240A941216130614066B
S1130AA005060895092E0394000C11F4882352F0CE
S1130AB0BB0F40F4BF2B11F460FF04C06F5F7F4F86
S1130AC08F4F9F4F089557FD9058440F551F59F06D
S1130AD05F3F71F04795880F97FB991F61F09F3F27
S1130AE079F087950895121613061406551FF2CF50
S1130AF04695F1DF08C0161617061806991FF1CFA0
S1130B0086957105610508940895E894BB276627C6
S1130B107727CB0197F908950E949F050C945205FD
S1130B200E94440538F00E944B0520F0952311F0F3
S1130B300C943B050C94410511240C9486050E94E9
S1130B40630570F3959FC1F3950F50E0551F629FA5
S1130B50F001729FBB27F00DB11D639FAA27F00D12
S1130B60B11DAA1F649F6627B00DA11D661F829F39
S1130B702227B00DA11D621F739FB00DA11D621F1E
S1130B80839FA00D611D221F749F3327A00D611D3B
S1130B90231F849F600D211D822F762F6A2F11241D
S1130BA09F5750409AF0F1F088234AF0EE0FFF1F50
S1130BB0BB1F661F771F881F91505040A9F79E3FA7
S1130BC0510580F00C943B050C9486055F3FE4F3DB
S1130BD0983ED4F3869577956795B795F795E795FD
S1130BE09F5FC1F7FE2B880F911D9695879597F906
S1090BF00895F894FFCF04
S9030000FC
